:020000040000FA
:1000000008340020D5040000EF0400009B05000028
:1000100000000000000000000000000000000000E0
:10002000000000000000000000000000F3040000D9
:100030000000000000000000F5040000F7040000CC
:10004000F90400009D05000009070000F904000004
:10005000F904000000000000F9040000F9040000A9
:1000600005070000F9040000F9040000F90400008D
:10007000F9040000F9040000F9040000F90400008C
:10008000F9040000F9040000F9040000F90400007C
:10009000F9040000F9040000F9040000F90400006C
:1000A000F9040000F9040000000000000000000056
:1000B0000000000000000000000000000000000040
:1000C00000F002F800F032F80CA030C8083824180C
:1000D0002D18A246671EAB4654465D46AC4201D180
:1000E00000F024F87E460F3E0FCCB6460126334280
:1000F00000D0FB1AA246AB4633431847BC2700008A
:10010000DC2700000023002400250026103A01D33C
:1001100078C1FBD8520700D330C100D50B607047BF
:100120001FB5C046C0461FBD10B510BD00F0ACF9EC
:100130001146FFF7F5FF01F05BFD00F0C4F903B4D1
:10014000FFF7F2FF03BC00F0F3F9000070B50546BD
:100150000C46164602E00FCC0FC5103E102EFAD208
:10016000082E02D303CC03C5083E042E07D301CCCE
:1001700001C5361F03E021782970641C6D1C761EB2
:10018000F9D270BD034610B50B439B070FD1042A6B
:100190000DD308C810C9121FA342F8D018BA21BA4B
:1001A000884201D9012010BD0020C04310BD002AA3
:1001B00003D0D30703D0521C07E0002010BD037802
:1001C0000C78401C491C1B1B07D103780C78401C81
:1001D000491C1B1B01D1921EF1D1184610BDF8B568
:1001E000042A2CD3830712D00B78491C0370401CBF
:1001F000521E83070BD00B78491C0370401C521E03
:10020000830704D00B78491C0370401C521E8B07D7
:100210009B0F05D0C91ADF002023DE1B08C90AE0A6
:10022000FFF794FFF8BD1D4608C9FD401C46B440C9
:100230002C4310C0121F042AF5D2F308C91A521E0B
:10024000F0D40B78491C0370401C521EEAD40B7882
:10025000491C0370401C012AE4D409780170F8BDE0
:1002600001E004C0091F0429FBD28B0701D50280DD
:10027000801CC90700D00270704700290BD0C3074B
:1002800002D00270401C491E022904D3830702D504
:100290000280801C891EE3E70022EEE70022DFE7F0
:1002A000002203098B4273D3030A8B4258D3030BFA
:1002B0008B423CD3030C8B4221D312E003460B4309
:1002C0007FD4002243088B4274D303098B425FD34F
:1002D000030A8B4244D3030B8B4228D3030C8B427B
:1002E0000DD3FF22090212BA030C8B4202D3121261
:1002F000090265D0030B8B4219D300E0090AC30B36
:100300008B4201D3CB03C01A5241830B8B4201D3E2
:100310008B03C01A5241430B8B4201D34B03C01ACB
:100320005241030B8B4201D30B03C01A5241C30A43
:100330008B4201D3CB02C01A5241830A8B4201D3B4
:100340008B02C01A5241430A8B4201D34B02C01A9E
:100350005241030A8B4201D30B02C01A5241CDD243
:10036000C3098B4201D3CB01C01A524183098B428E
:1003700001D38B01C01A524143098B4201D34B0177
:10038000C01A524103098B4201D30B01C01A5241DA
:10039000C3088B4201D3CB00C01A524183088B4261
:1003A00001D38B00C01A524143088B4201D34B004A
:1003B000C01A5241411A00D20146524110467047BC
:1003C0005DE0CA0F00D04942031000D340425340C1
:1003D00000229C4603098B422DD3030A8B4212D381
:1003E000FC22890112BA030A8B420CD389019211B3
:1003F0008B4208D3890192118B4204D389013AD0F0
:10040000921100E08909C3098B4201D3CB01C01AC4
:10041000524183098B4201D38B01C01A52414309D7
:100420008B4201D34B01C01A524103098B4201D3C5
:100430000B01C01A5241C3088B4201D3CB00C01A32
:10044000524183088B4201D38B00C01A5241D9D24A
:1004500043088B4201D34B00C01A5241411A00D2CB
:100460000146634652415B10104601D34042002BC7
:1004700000D54942704763465B1000D3404201B546
:100480000020C046C04602BD754600F04DF8AE469D
:10049000050069465346C008C000854618B020B51F
:1004A00000F02CF860BC00274908B6460026C0C5FD
:1004B000C0C5C0C5C0C5C0C5C0C5C0C5C0C5403D1C
:1004C00049008D4670470446C046C0462046FFF7A7
:1004D00036FE000003210C4802680A4302600B4804
:1004E00002680A4302600A4880470A480047FEE75C
:1004F000FEE7FEE7FEE7FEE7FEE7000006480749E5
:10050000074A084B7047000024050040540500408E
:1005100039060000C1000000082400200834002033
:10052000082C0020082C002000487047A42300203D
:1005300001491820ABBEFEE7260002007047704755
:100540007047704770B58C180578401C6B075B0FBF
:1005500001D10378401C2A1106D10278401C03E027
:100560000678401C0E70491C5B1EF9D12B0705D480
:100570000023521E0DD40B70491CFAE70378401C6F
:10058000CB1A921C03E01D780D70491C5B1C521E97
:10059000F9D5A142D8D3002070BDFEE770B5244C38
:1005A0002069002843D0234D687800F0B9FDA87871
:1005B00000F0B6FDFF206870A870216800200029B7
:1005C00000D001206168002901D002210843A16800
:1005D000002901D004210843E168002901D0082145
:1005E00008432169002901D01021084361690029CD
:1005F00001D020210843A169002901D040210843EE
:10060000E169002901D080210843A16A002902D0B4
:10061000FF2101310843002121606160A160E16098
:1006200021616161A161E161A1626968884770BD72
:1006300000110040940000202B4A108CC0B2012809
:1006400017D1918C090714D1118D09060B0F03D115
:10065000938D1B061B0F0FD0090F012903D1938D1A
:100660001B061B0F08D0032903D1918D0906090F22
:1006700002D0012807D012E01D4B1C495960D91344
:100680001C4B996102E0918C090708D1118D090674
:10069000090F042903D1918D0906090F0AD00128F9
:1006A00021D1908C00071ED1108D0006000F0A2862
:1006B00004D007E0104901208860F5E7918D090614
:1006C000090F05D00D280ED1908D0006000F0AD11C
:1006D0000A480168012904D009490160016801291B
:1006E000FCD1C02141617047C00F00F0DFFF07C09F
:1006F00000050040006C00400006004000EC064091
:100700007593000070470000F8B51F4DA8681F4C96
:100710000026002823D01E4F786840071FD5AE6002
:10072000A078002809D16178206900F003FBA0704F
:10073000002802D1A068401CA06016488069C1B2A0
:1007400061706068401C6060206900F0F3FAA0707E
:10075000206900F0ABFA002801D00420B860E869F5
:1007600000280CD0EE616946E06800F0C4FA002869
:1007700004D0684601780748C16100E02670686AC5
:10078000002800D06E62F8BD00210040400100202A
:1007900000230040002500400A7802704B78437027
:1007A0008A788270CA78C2700B7903714A79427173
:1007B00070470A7802704B7843708A788270CA78E2
:1007C000C2700B7903714A7942718A798271CB794F
:1007D000C3717047C9B2017041708170C1707047B8
:1007E00070B40022022383700C4D41716B681B0AA8
:1007F00003716B685E1C6E60C370092906D0052901
:1008000008D0012906D0062902D003E0042201E025
:10081000427D1432028070BC704700003C00002012
:10082000F0B50146064685B00446451D264F6F319A
:100830005F3602A8FFF7BDFF68463146FFF7B9FFF4
:1008400069462A46384600F009FB20462146993081
:1008500089310646FFF7ADFF20462146A130913190
:100860000546FFF7A6FF287A2874687A6874A87A84
:10087000A874E87AE874287B2875687B6875A87B7B
:10088000A875E87BE8752046022210498730FFF7FB
:1008900079FC25462535002807D1204608220B493A
:1008A0007F30FFF76FFC002807D0204615302A461E
:1008B000314600F0D3FA05B0F0BD601D2A4631463E
:1008C00000F0CCFA05B0F0BD742000208420002098
:1008D000F0B5444D83B0696800910A7F4249002A0F
:1008E0004979019159D0009900258A7B4B7B1202EE
:1008F0001A430B7CCC7B1902214352BA49BA4A40B5
:100900005040944604460727260A002108463246EE
:10091000C240D207D20F3B1A9A400A43401CD1B2C0
:100920000828F4D30A020021E4B208462346C34053
:10093000DB07DB0F3E1AB3400B43401CD9B208283B
:10094000F4D30A4311016046511808186D1C84B293
:10095000032DD9D36046444025212046FFF7A0FC53
:100960004A07CB08520F084625290CD026280AD062
:10097000272808D00099C9184B7C012191400B42CF
:1009800001D0012200E00022002A04D10198174979
:100990006043000C085C03B0F0BD009829784078F3
:1009A00040182521FFF77CFC4A07CB08520F084668
:1009B000297025290FD026280DD027280BD0009983
:1009C000C9184B7C012191400B4201D0012100E06C
:1009D00000210029DFD10199FFF762FC0348405C48
:1009E00003B0F0BD80000020482000202820002017
:1009F00010B5034900220A70486001F075F810BD77
:100A00008000002010B50249486001F06DF810BD6B
:100A100080000020024610B5014640325379203153
:100A20004B7193798B71D379CB71137A0B72527AA4
:100A30004A721430FFF7E6FF10BD10B500F010FC4D
:100A400010BD000010B500F00BFC084C0246002061
:100A5000E17800E0401C814202DD235C9342F9D141
:100A6000401CFFF72BFC605C10BD00007C000020E8
:100A7000044902780A7042784A7082788A70C07895
:100A8000C87070477C000020064900224A618A60D5
:100A90000A61CA60CA618A61086003480121017065
:100AA000704700005020002070200020024841695B
:100AB000491C4161704700005020002010B4094CCF
:100AC0006143094C616007494A434B432361E2603B
:100AD000A16000216161206004480170E161A161B1
:100AE00010BC7047E204000050200020702000205D
:100AF0000A48826801688B188269C169521C514397
:100B0000C26889185A18064943690978C9184368A0
:100B1000006959435118081864307047502000206C
:100B2000702000200948826801688B188269C169B9
:100B3000521C5143C26889185A18054943690978FB
:100B40004068C9184143501864387047502000204D
:100B50007020002009490A4A0B785169002B07D000
:100B60005268401C5143074A5043814202D203E07D
:100B7000062901D90120704700207047702000200D
:100B8000502000201027000030B4094B094D5C684C
:100B9000DC615C699C610024684369436A435C6171
:100BA0001A61D96058600448047030BC7047000076
:100BB00050200020E20400007020002070B50A7A66
:100BC0008275CA79C2758A7902764A7942760A793B
:100BD0008276CA78C2768A7C42734A7C82730A7CA7
:100BE000C273CA7B02744A7D02730A7DC272CA7CD8
:100BF00082728A7D0270CA1C0C7E1346CD7D220251
:100C00002A4342808C7E4D7E24022C4384805C7E6D
:100C10001D7E23022B43C3808B7F4C7F1A0222430D
:100C20000281CA7F427420310A7882744A78C27481
:100C30008A780275CA7842750979C906C90E417069
:100C4000012141778177FFF7D3FE70BD70B50A7837
:100C500002704C8844808B888380CD88C580098948
:100C6000018121461846FFF78FFF70BD4A7F002A99
:100C700000D04277897F002900D08177704730B457
:100C800041688AB28168C46889B250044B04400C40
:100C90005B0CA5B2984204D38A4202D05919081AB3
:100CA00000E0181A80B2201A30BC70474168806892
:100CB00089B280B24A044304520C5B0C9A4203D1BD
:100CC000814201D00120704700207047C26001605E
:100CD0000021416081607047826893B2426892B29D
:100CE0009A4201D10020704752040068520C805C87
:100CF000087001207047826893B2426892B29A42AB
:100D000001D10020704710B4530404685B0CE45C0C
:100D10000C7081895B1C89B28B4205D10121C9030A
:100D20004A40D20BD20300E0521C91B2416010BC89
:100D30000120704730B4426893B282685D0492B279
:100D400054046D0C640CA54204D1934202D030BC13
:100D500000207047036819558189641C89B28C4250
:100D600005D10121C9034A40D20BD20300E0521C35
:100D700091B2816030BC012070470000014A91604F
:100D8000506070478800002010B4054B02241C609E
:100D9000986004485861D9601A6110BC704700001F
:100DA00000F50040A82100200449002048600449C3
:100DB00001204860034908607047000000F10040CE
:100DC00000F5004000F00040002803D00248016810
:100DD0000029FCD07047000004F10040044840683E
:100DE000002804D003480068002800D00120704784
:100DF00000F1004000F40040002805D0012805D093
:100E0000022805D00020704702487047024870470A
:100E10000248704700F0004004F0004008F0004035
:100E20000448002101600121820511600168002948
:100E3000FCD0704700010040064902208861064846
:100E40000021416001218205916041680029FCD0A8
:100E5000704700000005004000010040F8B5124C4A
:100E6000174605461022606801F012FD102229463F
:100E7000206801F00DFD01230C4D0D480022026099
:100E800042602B600168002902D141680029F9D035
:100E90004168012906D0026010223846A16801F09D
:100EA000F7FCF8BD4260EAE79C00002000E000404B
:100EB00000E100400648074A426004490160064AD2
:100EC000826006484160012070470000B322002084
:100ED0009C000020C3220020D322002000E5004017
:100EE0000521090780004018072100220902401847
:100EF0000260704701218140014881617047000014
:100F00000005005070B50948FF21FFF763FC002081
:100F1000074D084C01232A5C19469140A161A1604C
:100F2000401CC0B20328F6D370BD0000A80000200A
:100F3000B5280000000500500349085C01218140EC
:100F40000248816070470000B5280000000500508D
:100F50000349085C012181400248C16070470000DC
:100F6000B5280000000500500549064B0A5C58688A
:100F7000012191400A4682439A600140D96070473E
:100F8000B52800000005005002490969C140C807A2
:100F9000C00F704700050050012181400148816069
:100FA000704700000005005010B500F019F9FFF778
:100FB000A9FFFFF77FFFFFF733FFFFF73DFF00F0CB
:100FC00003FB10BD0246EFF3108072B6002801D07B
:100FD000012100E000211078002806D00020012324
:100FE0001370002900D162B670470120F7E7002195
:100FF00001707047EFF3108172B6002900D0012113
:1010000000220270002900D162B6704701461439EF
:10101000C9B20C2906D20C2251430A4A8918097A0E
:10102000002909D110280BD201460C225143064A4F
:101030008918097A002903D0012181400348816081
:1010400070470000AC000020E422002000F50140C1
:1010500001461439C9B20C2906D20C2251430A4A5E
:101060008918097A002909D110280BD201460C22CF
:101070005143064A8918097A002903D00121814089
:101080000348416070470000AC000020E4220020CB
:1010900000F50140F0B41F4E044600220C235343D8
:1010A000F558A54206D19B195D688D4202D11B7A85
:1010B000002B08D0521C0C2AF0DBFF22FF2A0AD09A
:1010C000F0BC104670470C2454430123A419143279
:1010D0002372D2B2F2E703460F4C00200C224243A7
:1010E0001219127A002A05D0401C1028F6DBF0BC39
:1010F000FF2070470C224243A35012190124516073
:101100001472C0B2054AC400A21813615161F0BC48
:1011100070470000AC000020E422002000F50140F0
:10112000F0B40246143AD1B20C23174D59434C196E
:10113000194603464B431549D6B259180C2E02D214
:10114000267A002E04D1102806D20E7A002E03D063
:1011500001270F4E8740B760D6B200220C2E08D26E
:10116000247A002C05D05819FF3801380276F0BCDB
:1011700070471028FBD2087A0028F8D00A604A602D
:101180008A60F0BC70470000AC000020E422002020
:1011900000F5014000B5FFF77DFFFF2819D001469B
:1011A0001439C9B20C2906D20C225143094A8918B4
:1011B000097A002909D1014610280AD20C2251438C
:1011C000054A8918097A002903D00122034982407F
:1011D0004A6000BDAC000020E422002000F5014080
:1011E00010B5C0210148FFF759F810BDE4220020D6
:1011F00006494A6A0270CA69120E4270CA69120C24
:101200008270C969090AC17070470000001500406A
:101210000A4B01785962401C01460A7810464A7808
:10122000120210438A78C978120410430906084351
:1012300000BA000A0002D8617047000000150040A3
:101240000248016808229143016070470012004083
:1012500002480168082211430160704700120040F3
:101260000148C078704700009400002010B5282184
:10127000FFF716F80D482529C17007D0262907D099
:10128000272907D00A2907D9012006E0022008E013
:101290001A2006E0502004E0002040184000001D05
:1012A000C0B2034A90600348416110BD9400002021
:1012B0000015004040150040064B002808D00648A5
:1012C000D1B21943054A03231361506191617047FC
:1012D0000348F5E700000302060102000015004084
:1012E0000501030002480068012800D00020704773
:1012F000001400400449CA680270CA68120A4270A9
:10130000C968090C8170704700140040FF210A4B26
:10131000043159630949996301460A7810464A78AD
:10132000120210438A78C978120410430906084350
:101330000002000AD8637047001500405B060000F9
:1013400010B5054C2078FFF7EBFEFF202070034915
:101350000020086010BD00009400002040160040EE
:1013600070B54A780B7812021A4355BA8A1C134694
:101370001C78497922465C78240222439C78DB78E9
:10138000240422431B061A4312BA120A12020A4309
:1013900008490A600D62C007C00D0749401C08607B
:1013A000064C2078FFF7BCFE05490648FFF7F2FE21
:1013B000207070BD001600404016004094000020D0
:1013C0001010004018110040F8B5114C002804D04E
:1013D0001049FFF7DFFE6070F8BD6078FFF7A0FEF0
:1013E0000D4800690028F7D00C4C22680C4E1025DF
:1013F000B560002323600B4F3B610B49012008615E
:101400000A4801680029FCD03B6122607560F8BD84
:1014100094000020101000404015004000120040D1
:101420000013004000110040001000401011004067
:1014300010B50B49002804D0FFF7ACFE09498870AD
:1014400010BD094A0020106050609060D0601061AB
:1014500050619061D06190620120086010BD000071
:1014600004100040940000200011004010281CD0FF
:1014700008DC012811D0022811D0042811D0082836
:1014800009D110E0202812D0402812D0802812D094
:10149000FF38012811D000207047094870470948DB
:1014A000704709487047094870470948704709481C
:1014B000704709487047094870470948704700005D
:1014C0000011004004110040081100400C110040C0
:1014D0001011004014110040181100401C11004070
:1014E0002811004070B50121144A02231360144AE8
:1014F0000024D463D163134D13222A60124AD460AE
:10150000D4621163114A1021516011490B60114AD4
:101510001168FF252C02A14311600F490B600F4C8D
:1015200060602078FFF7FCFD6078FFF7F9FDA07898
:10153000FFF7F6FD25706570A57070BD80E100E0D5
:10154000C01F004000120040001500400013004082
:1015500080E200E000E400E000E100E09400002010
:10156000014840687047000000150040014948608C
:10157000704700000015004001488068C0B2704705
:1015800040150040F8B50F46044609498000094E51
:101590004518305DFFF7C4FD002F05D029463846B9
:1015A000FFF7F8FD3055F8BD01202860F8BD0000B8
:1015B000408000403C010020024980004018006C3F
:1015C000704700000085004030B4012510482B0210
:1015D000036000240F4920460C704C708C70FF2271
:1015E0000A54401CC0B20328FAD30B4A5560D56098
:1015F0000A484460032181600421016108480460B5
:101600000848036008480360156030BC704700005C
:1016100080E100E03C0100200080004000850040A7
:101620000082004080E200E000E100E0054B002283
:101630008000C3181A64044A8218116403494018D0
:10164000704700000081004000850040408100405C
:1016500070B50D46014614460448FFF79DF804484E
:101660000561C460143000F06BFA70BD54010020B5
:101670004001002038B50A4980204860094C207894
:1016800000280BD16946E068FFF735FB002805D03C
:10169000684605490078C8610120207038BD000007
:1016A000002300404001002000250040F8B5124E04
:1016B0000446F0680F4600281AD000F085FD317806
:1016C000002902D02030457C01E02030857CFFF7E6
:1016D000B4F90146F06800F0D5FC022D09D0283C91
:1016E000B068B760211AF06800F056FD00F042FFC4
:1016F000F8BD183CF4E700001000002070B5002091
:10170000FFF732FC0020FFF75FFE00F05DFD41882F
:101710000446491C418000F057FD01F08EF8254E2B
:10172000F078002803D020465430FFF779F80120E4
:1017300030700020F0700125A08BFFF70BFA002815
:1017400000D000252079002802D0607900282BD114
:10175000002D29D06088FFF7BBF8FFF787FDB07830
:101760001B22002800D01F222034617C0020FFF7BC
:10177000A3FDFFF7D7F90446813CFFF7B9F9054609
:10178000283521460220FFF751FF04462946002054
:10179000FFF74CFF05462046FFF74AFE2846FFF7B5
:1017A00013FE0520307170BD034A7179707800F026
:1017B00011FE70BD1000002020000020F3B585B0A0
:1017C000054600F001FD044606983E4F0095019045
:1017D000F868002845D000F0F7FC05463878002866
:1017E00002D031214E5D01E032214E5D0022039096
:1017F000104601218140314204D1401CC0B208286A
:10180000F7D300204007400E10430290FFF7E6FA9E
:1018100000282ED1FF20113040594078002828D0D0
:1018200000200299C0000843B97889000143039859
:1018300042000A430292FFF755FD029A1043014607
:101840006A88F86800F05EFC019A0098022E12D0B7
:101850002838B968BA60411AF86800F09DFC00F0B9
:1018600089FEE51DF93528690078C043800704D05A
:1018700007E00120D5E71838EBE73978204600F07B
:10188000FBF92079002804D03978204600F081FF48
:101890006071224654323978286900F0BDFEF9782B
:1018A0000843F870387801214840387006990020C4
:1018B000C831FFF7BBFEFFF787FD0620387107B080
:1018C000F0BD00001000002070B500F013FE1B4CAE
:1018D0000028E06003D000F05DFC054600E0184DF4
:1018E000A078002821D000F06FFC01462078002865
:1018F00002D020314E7C01E020318E7C002802D0C5
:10190000A369E46901E0236A646A0E494C610B61D2
:1019100008760D48FFF72AFE2A460B490948FFF7CB
:1019200033FA3046FFF740FA02E02846FFF71EFE82
:1019300000F04AFCFF300130056170BD100000204E
:10194000A8010020E8010020C3010020F8B50446EA
:101950000020FFF731FE06460120FFF72DFE054669
:101960005F4F200702D5B878FFF72EFA387907289D
:1019700071D201007944097949188F44AB03172CBF
:101980008195A1000020FFF7EFFA0020FFF71CFD72
:10199000FFF758F8FFF76AFC0020FFF749FD200722
:1019A00040D529463046FFF781FE95E0A00639D59F
:1019B000FFF7D6FD0078F87129463046FFF776FE2E
:1019C000FFF7BEFC2946C8310020FFF72FFEFFF7C6
:1019D000FBFC032025E020073ED529463046FFF7D3
:1019E00065FEFFF7BDFD00780007000F052825D133
:1019F000FFF778FC002821D07878002813D03949E7
:101A00007879FFF7ADFC0020FFF7AEFA0020FFF772
:101A1000DBFCFFF717F8FFF729FC0020FFF708FDB4
:101A20000220387158E00020FFF7CEFCFFF798FD48
:101A30000146284600F056FC0520F2E7294978794E
:101A4000FFF78EFC2946C8310020FFF7EFFDFFF7B6
:101A5000BBFC0420E5E73DE00020FFF785FA00200D
:101A6000FFF7B2FCFEF7EEFFFFF700FC0020FFF7E8
:101A7000DFFC1C497879FFF773FC022038712BE0FA
:101A80000020FFF771FA0020FFF79EFCFEF7DAFF57
:101A9000FFF7ECFB0020FFF7CBFC29463046FFF7B1
:101AA00005FE0220387117E0200704D5304628389B
:101AB000FEF7EAFF06E0FEF7F9FFFFF71FFE0BE077
:101AC000200704D529463046FFF778FE04E0FFF7EB
:101AD00015FE01E002203871FFF7F6FEF8BD0000A8
:101AE0001000002020000020F0B4124A0020124D07
:101AF0005368014601244207C608520F252811D019
:101B000026280FD027280DD09E19767C274697408F
:101B10003E4201D0012200E00022002A02D0685497
:101B2000491CC9B2401CC0B22528E4D30348417106
:101B3000F0BC7047800000202820002048200020B2
:101B4000F8B504464078FFF7D5F92078FFF7D2F9C9
:101B50006078FFF721FA2078FFF71EFAE078FFF7A8
:101B6000BFF9A078FFF7BCF9194D2078A86060781C
:101B7000E860A0782861E0786861164F0026BE60B2
:101B8000FE6160791221FEF78BFB8800124908582C
:101B900068622079002800D001201049C8621049ED
:101BA0000420486080224A602860BE60FE610D4AC1
:101BB0000121916011600C490A68FF231B049A43BC
:101BC00003239B051A430A6008490860F8BD00001A
:101BD00000250040002100405C010020402500401D
:101BE000002300400020004000E400E000E100E0AD
:101BF000FFF7DAF900F076FC00F032FC00F0E4FACE
:101C000000F0E6FA00F0D0FC174A1849184800F036
:101C1000B9FA00F0D9FA543000F0E0FA0720154C78
:101C2000FF252070207800280FD0042801D0072835
:101C300013D000F0EBF8207000F074FC0028F1D015
:101C400000F0B2FA00F082FCECE700F027FC084A52
:101C50006178A07800F0BEFB03E000F01FFC00F00C
:101C6000DBFA2570E8E700000200002001000020F8
:101C70000300002000000020F8B50446FF300130CA
:101C800005690A46E8784049002816D026464036BD
:101C9000012843D002286CD018280DD1E879AA7900
:101CA000070260881743381AFEF708FB374881425D
:101CB00054DA0120002854D1F8BDA87B6A7B0602C3
:101CC000608816436F1C301AFEF7F8FA2F488142DD
:101CD00003DA0120002803D11DE0002000281AD0DB
:101CE0002979342001557879397900020843E08652
:101CF000287AE979000208432087787A397A000245
:101D000008436087287BE97A00020843A087012006
:101D100020726681F8BD00202070F8BDAA7A687A2A
:101D2000170207436088381AFEF7C8FA174881423D
:101D300003DA0120002803D1EDE700200028EAD0D3
:101D4000287970716879B071A879F071E87930728A
:101D5000287A7072012020746782F8BD0020002864
:101D6000FBD0287970746879B07401202073E78102
:101D7000F8BD20790028FBD10120207128780007C8
:101D8000C00FA071E271F8BDFFFF0000FF7F0000EF
:101D900030B403785A071B07DD0F4378D20F002BAE
:101DA00006D00023174C002904D0637030BC704764
:101DB0000123F7E7A1784D400FD1134B002913D031
:101DC000002119704078002807D0A068002501681C
:101DD0004368491C6B4143600160207882420DD00A
:101DE0006078002802D009E00121EAE76068002558
:101DF00001684368491C6B4143600160227030BC3C
:101E000070470000880000208A000020F8B500F02C
:101E1000D1FC00280BD00468A1780229214601D307
:101E2000098800E049784268881D824201D0FF207D
:101E3000F8BD6579234EA41D0C2D1BD004DC002DAC
:101E40000AD0072D3CD104E00D2D19D0172D37D124
:101E50002AE000F059F833E02146B068FEF79CFC18
:101E6000F168A0790870E079002800D0012031697C
:101E7000087025E0102923D1204600F03BF81FE030
:101E8000307800281CD1012030700F497068000A9A
:101E900008717068421C7260C87008210A4800F01E
:101EA000C3FC002030700BE020786946C870607871
:101EB0000870A0784870E07888706846FEF7D8FD12
:101EC0002846F8BD3C0000205C0000200178332348
:101ED0000A090907090E0A4391081A40194092009D
:101EE00011434A08552319401A4049000A43027019
:101EF0007047000010B501461022024800F0C8FCEF
:101F000010BD00007420002010B5034910220348C2
:101F100000F0BEFC10BD00008420002074200020D2
:101F2000F8B50D46044680686946FEF7D5FE0028E0
:101F300028D000260127607800286846007812D053
:101F4000AB2812D0BC281FD061686A68914208D0C3
:101F50002278002A29D0AC281FD0BD281DD0CE2839
:101F60001BD0667008E0AB2802D1677026706660EF
:101F70006946A068FEF7BFFE6946A068FEF7ACFEA2
:101F80000028D8D10020F8BD66706946A068FEF729
:101F9000B2FE606868600120F8BD2A68401E505497
:101FA0006068401C60602670E2E7CD2805D02A6892
:101FB00050546068401C6060DAE72770D8E7F8B5D5
:101FC00004460D468068FEF771FE002837D10026D2
:101FD0000127607800280FD0296860682278095CA2
:101FE000002A11D0491CC9B2A068FEF7A3FE6068A0
:101FF000401C606026701DE0AB21A068FEF79AFED1
:1020000067702670666015E06A68904206D1BC2150
:10201000A068FEF78FFE66700120F8BDAB2910D0D6
:10202000BC290ED0CD290CD0A068FEF783FE6068D5
:10203000401C6060A068FEF739FE0028C9D000206F
:10204000F8BDCD21A068FEF775FE2770F2E710B449
:102050000246546801200021002C0CD913685A5CF8
:10206000AB2A03D0BC2A01D0CD2A00D1401C401C91
:10207000491C8C42F3D810BC401C704700220260FF
:1020800081607047F8B51E4D044628780E4600283A
:1020900035D1012028700A20A07106212046FEF7C4
:1020A0009FFBFFF71FF9E07126720026A672E67209
:1020B000FFF762FA60726846FFF79AF8204604223A
:1020C0006946103000F0E4FBA078022801D3208894
:1020D00000E06078C01C87B26846FFF70BF9E4198E
:1020E00003226946204600F0D3FBA01CFFF7EEFE5A
:1020F000601CFFF7EBFE2046FFF7E8FE2E70F8BDF0
:102100003C000020F8B51E4D0446287816460F46C0
:10211000002834D10120287006212046FEF760FBFC
:10212000E771FEF78AFC2072FFF726FA6072A6724A
:10213000300AE0726846FFF75BF8204604226946E1
:10214000103000F0A5FBA078022801D3208800E021
:102150006078C01C86B26846FFF7CCF8A419032249
:102160006946204600F094FBA01CFFF7AFFE601C00
:10217000FFF7ACFE2046FFF7A9FE00202870F8BD4F
:102180003C000020024B1A61D96098607047000043
:102190003C0000201430704701730A0A42730A0C95
:1021A0008273090EC173704710B50188891D00F054
:1021B0003BFB10BD0121017000210172017401730C
:1021C0004171017170470000004870479420002061
:1021D00010B5FF211531FEF761F810BD10B584B0C0
:1021E0000021044600910191029103916946102259
:1021F000074800F04DFB102269460648FDF7EFFF47
:102200002046102269461530FDF7E9FF04B010BDE5
:10221000742000208420002010B500F03FF91448FD
:10222000FFF760F9012125220846FFF745F8252030
:10223000FFF71CF80F48FFF769F80F48FEF7E8FFB3
:102240000220FFF713F901460020FFF79BF9082051
:10225000FFF70CF901460120FFF794F90020FFF782
:10226000E7F8FFF731FB05490120087110BD0000B8
:102270004D190000AE280000B12800001000002019
:1022800010B5034CA079FEF7C1FE0020A07010BD70
:102290001000002070B50C46014610220E4800F0D8
:1022A000F7FA21460D48FEF784FA00250C4C2B4620
:1022B00025626562A561E561227828462946002AE3
:1022C00000D11946044B596118611A76A079FEF7BE
:1022D000BFFE0120A07070BDE801002001020020B7
:1022E00010000020F3B581B00F46FFF76DFF0446E4
:1022F00000F0D4F80120FEF72BFE324E3978F07949
:1023000049098006C00F08402546C0072035C00F88
:102310002874002060802046FFF74CFF2046394695
:102320001430FEF74BFC28492848FEF727FD2848C3
:10233000FFF7D8F8FEF78CFFA81EFEF7E7FF681C32
:10234000FEF766FFB0781B22002800D01F22697CB0
:102350000020FEF7B1FF237DE28A218B0198FEF772
:10236000ADFB0220FFF782F801460020FFF70AF9D3
:102370000820FFF77BF801460120FFF703F960888A
:10238000FEF7A6FAFEF772FFFEF7CCFB0446813C8F
:10239000FEF7AEFB0546283521460220FFF746F939
:1023A000044629460020FFF741F905462046FFF77D
:1023B0003FF82846FFF708F8FFF786FA0520307146
:1023C00003B0F0BD100000203000002028000020E5
:1023D0004D190000F8B516460F46044600F05EF8A9
:1023E0001A48FFF77FF8012125220846FEF764FF0F
:1023F0002520FEF73BFF1648FEF788FF1548FEF73D
:1024000007FF154D31466C703C466F711348FEF75F
:10241000C3F912492046FEF7A3FFFEF719FF022079
:10242000FFF724F801460020FFF7ACF80820FFF77B
:102430001DF801460120FFF7A5F80020FEF7F8FF80
:10244000FFF742FA02202871F8BD00004D19000084
:10245000AE280000B128000010000020200000205D
:1024600070B5084C002020710220FEF7FFFF0546E2
:102470000120FEF7C1FC01462846FEF70BFEA071C5
:1024800070BD00001000002003480021016241627D
:102490008161C161704700001000002070B5104CD0
:1024A0002079002802D00020FEF78EFFFEF748FFBB
:1024B000FEF7C6FEA079FEF7A9FD0025A5702562EE
:1024C0006562A5612846E561FEF736FD0120FEF74D
:1024D00033FD01202070E560E570257170BD0000BE
:1024E0001000002002480021018041807047000058
:1024F000380000200948018840884B0442045B0CE6
:10250000520C934203D1814201D000207047FF203A
:102510002D30424302481018704700003800002058
:1025200010020020074841880088884201D100201D
:1025300070474004FF21400C2D31484302494018A8
:10254000704700003800002010020020084A51881F
:102550001088884205D04104490C072902D0401C4C
:10256000108070470121C9034840C00BC003F7E742
:102570003800002010B40B4B1888598844044A04D2
:10258000640C520C944201D1884203D1072A03D033
:10259000491C598010BC70470120C0034140C90B41
:1025A000C903F6E73800002010B51248FEF71FFDFA
:1025B0000122920210491148FEF788FB0F4910488A
:1025C000FFF75CFD012212030E490F48FEF77EFB68
:1025D0000D490E48FFF752FD1E20FEF7D5FC0A4AB2
:1025E0000649002801D00A4800E00A48FFF730F801
:1025F00010BD000064000020F00B0020F00F002050
:102600001020002000100020002000201C200020AE
:102610006B00002065000020F7B582B0054601463A
:102620001060039810710B7800279B079B0F009395
:102630004B788C794E79DB062402DB0E3443002B79
:102640003FD0009B012B3CD0022B02D0032B38D172
:1026500048E0062C35D11446CA79C91D092A30D262
:1026600013007B441B79DB189F4484848484048496
:10267000141D2C00002806D0204610225F30491C73
:10268000FDF7ADFD76E0204610226F30491CFDF7C6
:10269000A6FD6FE000286DD1204610221530491CA0
:1026A000FDF79DFD66E0002864D1084622462132F0
:1026B000437A1375807A50752046491C3730FEF7EF
:1026C00078F857E0002806D0204610223F30491CF9
:1026D000FDF785FD4EE0204610224F30491CFDF7E6
:1026E0007EFD47E0CB7816460027291DA136DB1E6C
:1026F0001446092B3ED21A007A4412799218974454
:10270000041E2D3939393939350020467F30FEF71E
:1027100050F82168204683300A7B0271497B417161
:102720002168801D0E31FEF744F82068817D3172EA
:10273000C17D7172017EB172407EF0721AE0204656
:102740009130FEF736F820680127017B3173417B19
:102750007173817BB173C07BF0730BE0214620461F
:102760000022B1312530FFF795FD03E0002801D1AB
:10277000FFF786FD28460399FFF70AFB0098032818
:1027800004D1E878052801D1FFF77EFE384605B070
:10279000F0BDC2798A420AD0FF21113109588079EF
:1027A00009784907C90F884201D0012070470020ED
:1027B0007047000010B5074805490160802141605D
:1027C00001460548FFF7ACFB002800D0014810BDCA
:1027D000700B0020740000201020002070B505460A
:1027E00000240E48FEF7EEFB002814D02846FFF721
:1027F0002EFC06460A48FEF742FAB04206D32946A6
:102800000848FFF7DCFB0028F9D001240348FEF755
:10281000F1FBFEF72FFF204670BD00006400002092
:10282000002000201C20002000B583B00090019102
:102830006846FFF7D3FF03B000BDF8B50446217C1E
:1028400040880025002906D0618A814203D12046B4
:10285000FEF7E0F82574217A27462646608834374B
:102860001436002907D06189814204D139463046A7
:10287000FEF7ECF92572217B6088002907D0E189F9
:10288000814204D139463046FEF7F0F92573F8BD90
:102890000023002A0AD910B4D41A6418203CE47F1B
:1028A000C4545B1C9342F7D310BC70477047555516
:1028B000558E89BED6151617D828000000000020B6
:1028C000A80100004405000078290000A8010020AC
:1028D0006032000004010000F2FF024B011A020204
:1028E00011140E59041708090A0B010F1C010203E9
:1028F00006A1051425262703EBFFFF9661134081EF
:1029000012401A1004590C5A040C1A440C5A100C98
:102910001B2811084AF00C11990C1A040C9A040C8B
:102920004B44800C1A0C0C5A480C9B40B160190C9B
:102930006960290CAA0C24590C61021A0123F004C5
:1029400023D00923B013335027223B1BA04E18324B
:10295000751A8014329D1AE51022EB14903A011476
:10296000E0D7012CB0AF03A31114705F0734D0BEC1
:082970000E12101324F4000004
:04000005000000C136
:00000001FF
