:020000040000FA
:10000000F8D50020D9030000E10300003704000008
:10001000E5030000E7030000E90300000000000022
:10002000000000000000000000000000EB030000E2
:10003000ED03000000000000EF030000F1030000EA
:10004000F303000039040000D1070000F3030000AF
:10005000F3030000F3030000F3030000F3030000C8
:10006000CD070000F3030000F3030000F3030000DA
:10007000F3030000F3030000F3030000F3030000A8
:10008000F3030000F3030000F3030000F303000098
:10009000F3030000F3030000F3030000F303000088
:1000A000F3030000F3030000F3030000F303000078
:1000B000F3030000F3030000000000000000000054
:1000C000F3030000F3030000F3030000F303000058
:1000D000F3030000F3030000F3030000000000003E
:1000E0000000000000000000000000000000000010
:1000F0000000000000000000000000000000000000
:1001000000000000000000000000000000000000EF
:1001100000000000000000000000000000000000DF
:1001200000000000000000000000000000000000CF
:1001300000000000000000000000000000000000BF
:1001400000000000000000000000000000000000AF
:10015000000000000000000000000000000000009F
:10016000000000000000000000000000000000008F
:10017000000000000000000000000000000000007F
:10018000000000000000000000000000000000006F
:10019000000000000000000000000000000000005F
:1001A000000000000000000000000000000000004F
:1001B000000000000000000000000000000000003F
:1001C000000000000000000000000000000000002F
:1001D000000000000000000000000000000000001F
:1001E000000000000000000000000000000000000F
:1001F00000000000000000000000000000000000FF
:1002000000F002F800F05AF80AA090E8000C8244CE
:100210008344AAF10107DA4501D100F04FF8AFF2AB
:10022000090EBAE80F0013F0010F18BFFB1A43F0D4
:100230000103184714280000342800000A444FF036
:10024000000C10F8013B13F0070408BF10F8014B35
:100250001D1108BF10F8015B641E05D010F8016B7A
:10026000641E01F8016BF9D113F0080F1EBF10F8DE
:10027000014BAD1C0C1B09D16D1E58BF01F801CB01
:10028000FAD505E014F8016B01F8016B6D1EF9D584
:100290009142D6D370470000002300240025002699
:1002A000103A28BF78C1FBD8520728BF30C148BFD9
:1002B0000B6070471FB51FBD10B510BD00F060F892
:1002C0001146FFF7F7FF01F0A5FD00F07EF803B43B
:1002D000FFF7F2FF03BC00F0A7F840EA010310B5F6
:1002E0009B070FD1042A0DD310C808C9121F9C42C6
:1002F000F8D020BA19BA884201D9012010BD4FF0B8
:10030000FF3010BD1AB1D30703D0521C07E0002004
:1003100010BD10F8013B11F8014B1B1B07D110F861
:10032000013B11F8014B1B1B01D1921EF1D1184664
:1003300010BD4FF0000200B5134694469646203992
:1003400022BFA0E80C50A0E80C50B1F12001BFF48E
:10035000F7AF090728BFA0E80C5048BF0CC05DF8F4
:1003600004EB890028BF40F8042B08BF704748BF42
:1003700020F8022B11F0804F18BF00F8012B7047B6
:10038000754600F049F8AE4605006946534620F030
:100390000700854618B020B500F02CF8BDE82040D5
:1003A0004FF000064FF000074FF000084FF0000B31
:1003B00021F00701AC46ACE8C009ACE8C009ACE8E4
:1003C000C009ACE8C0098D4670470446AFF3008011
:1003D0002046FFF77CFF0000094880470948004796
:1003E000FEE7FEE7FEE7FEE7FEE7FEE7FEE7FEE7E5
:1003F000FEE7FEE704480549054A064B7047000042
:10040000FD04000001020000F8950020F8D500204E
:10041000F8B50020F8B500200048704794950020FA
:10042000704770477047000001491820ABBEFEE7D7
:10043000260002007047FEE770B52E4CD4F810017C
:10044000002808BF70BD2C4D687800F065FFA878C3
:1004500000F062FFFF206870A870D4F8001100203F
:10046000002918BF0120D4F80411002918BF40F05A
:100470000200D4F80811002918BF40F00400D4F895
:100480000C11002918BF40F00800D4F81011002901
:1004900018BF40F01000D4F81411002918BF40F024
:1004A0002000D4F81811002918BF40F04000D4F8FB
:1004B0001C11002918BF40F08000D4F82811002931
:1004C00018BF40F480700021C4F80011C4F8041172
:1004D000C4F80811C4F80C11C4F81011C4F81411B0
:1004E000C4F81811C4F81C11C4F828116968BDE8D3
:1004F00070400847001000408C0000208D4830B448
:100500008D4A00780024111D4FF0805C062804BF3E
:10051000137813F00F0F06D0062804BF137813F0DA
:100520000F0F13D10DE00B7803F0F003302B1CBF3D
:10053000402B502BF0D1BCF82433804DC3F304235F
:100540002B600B7803F0F003302B0CD0062804BF8F
:10055000137813F00F0F0AD0062804BF137813F096
:100560000F0F17D111E0774D754B6B6707E00B78D4
:1005700003F0F003302B1CBF402B502BECD1DCF8E8
:100580004432714DC3F342332B600B7803F0F00318
:10059000302B0CD0062804BF137813F00F0F0CD0AB
:1005A000062804BF137813F00F0F1BD115E0674B1B
:1005B0001D6825F080751D6007E00B7803F0F003DF
:1005C000302B1CBF402B502BEAD14FF08043C3F897
:1005D0000C41C3F810415E4B1C600B7803F0F00334
:1005E000302B06D0062804BF137813F00F0F09D163
:1005F00003E0584D03232B600BE00B7803F0F0036E
:10060000302B06D0062804BF137813F00F0F10D13B
:100610000AE0514D05232B60504D01232B60504BB8
:100620001C60504C3F2323600B7803F0F003502BE9
:100630000CD0062804BF137813F00F0F4AD00628F9
:1006400004BF107810F00F0F62D151E0464B1B68C9
:10065000464C2360464B1B68241D2360454B1B689A
:10066000241D2360444B1B68241D2360434B1B68DF
:10067000241D2360424B1B68241D2360414B1B68D3
:10068000414C2360414B1B68241D2360404B1B6879
:10069000241D23603F4B1B68241D23603E4B1B68B9
:1006A000241D23603D4B1B68241D23603C4B1B68AD
:1006B0003C4C23603C4B1B68241D23603B4B1B6858
:1006C000241D23603A4B1B68241D2360394B1B6893
:1006D000241D23600B7803F0F003302B1CBF402B4C
:1006E000502BACD1DCF85802334A00F04F001060B8
:1006F000087800F0F00030281CBF4028502807D1AF
:100700002E48016811F0010F1CBF6FF0010101605C
:10071000DCF83001062804BFDCF83401062804D1D7
:100720002748016841F48061016027492548086035
:1007300030BC7047E00F00F0E40F00F0403501409E
:100740000DF0ADBA00C007403C050040FCED00E0F4
:1007500038050040A0050040105600408856004073
:1007600018560040145600400404001020C50040F4
:10077000080400100C0400101004001014040010F1
:10078000180400101C04001040C500402004001094
:1007900024040010280400102C0400103004001061
:1007A0003404001060C50040380400103C04001000
:1007B0004004001044040010E40E00400004004017
:1007C0003C1700400090D003A001002070470000BB
:1007D000F8B5224DD5F80801214C002600281CBF91
:1007E000D5F8040310F0040F1FD0C5F80861A078F5
:1007F00040B96178206900F07EFBA07010B9A06854
:10080000401CA06017480068C1B261706068401C5D
:100810006060206900F06FFBA070206900F029FB88
:1008200000281CBF0420C5F80803D5F81C0168B1D6
:10083000C5F81C616946E06800F040FB002808BF6D
:10084000267003D008499DF800000860D5F82401FF
:10085000002818BFC5F82461F8BD00000020004042
:100860003C010020182500401C250040C9B241EA87
:10087000012141EA014101604160704738B50446F9
:10088000807802282CBF20886078C01C85B268461A
:1008900000F044FE601904460322694602F0BFF8E6
:1008A000A1780A0901F00F0142EA0111332202EA9C
:1008B000910301F0330143EA8101552303EA510C0E
:1008C00001F055014CEA4101A17061784FEA111C19
:1008D00001F00F014CEA011102EA910C01F0330121
:1008E0004CEA810103EA510C01F055014CEA410147
:1008F000617021784FEA111C01F00F014CEA0111DF
:1009000002EA910201F0330142EA810103EA510255
:1009100001F0550142EA4101217038BD30B4002296
:1009200002230D4C8370417163681B0A0371636875
:100930005D1C6560C370092908BF042208D0052921
:1009400018BF012904D0062904BF417D01F114021A
:10095000028030BC704700003C00002010B5044607
:1009600084B0D4F86F100291D4F873100391D4F8C6
:100970005F100091D4F86310421D01911F48694631
:1009800000F05AFBD4F88900C4F89900D4F88D001F
:10099000C4F89D00D4F89100C4F8A100D4F89500E3
:1009A000C4F8A500D4F8A900C4F8B100D4F8AD008B
:1009B000C4F8B5000222124904F18700FFF78DFC4C
:1009C00030B908220E4904F17F00FFF786FC50B1D0
:1009D00004B004F1250204F1150004F19901BDE809
:1009E000104000F029BB04B004F12502601D04F1A1
:1009F0009901BDE8104000F01FBB000034920020B8
:100A0000449200202DE9F00F484A4A4E484F54685E
:100A100096F825504FF00108217F00295CD021462F
:100A20004FF0000931F80D2F498852BA49BA82EACD
:100A3000010C80EA0C030021DAB2084622FA00FA1F
:100A40000AF0010AC0F1070B0AFA0BFA4AEA01019F
:100A5000401CC9B20828F1D31B0A0022104623FA11
:100A600000FA0AF0010AC0F1070B0AFA0BFA4AEA87
:100A70000202401CD2B20828F1D341EA022000EB66
:100A80000010604409F1010983B2B9F1030FD2D318
:100A9000274A83EA0C010020E1FB072000096FF0E0
:100AA000240200FB0210C0B2C30800F00702252890
:100AB0001CBF262827280BD0234408FA02F25B7CAF
:100AC0001A4018BF0122002A1CBFBDE8F00F704772
:100AD00005FB01F0000C25E060781178144B084408
:100AE0000021E0FB073109096FF0240301FB03003B
:100AF000C0B21070C10800F0070225281CBF2628CC
:100B000027280BD0214408FA02F2497C114018BF73
:100B1000012100291CBFBDE8F00F7047B0FBF5F1C3
:100B200005FB1100305CBDE8F00F70477800002035
:100B300053E4B36EE891002070B412490022124CC5
:100B40000A704860114601254FEAD10C01F00703F5
:100B500025291CBF262927290CD0844405FA03F334
:100B60009CF811C01CEA030318BF012313B1A15460
:100B7000521CD2B2491CC9B22529E5D384F82520DC
:100B800070BC704778000020E891002070B41249D2
:100B9000124C486000210A4601254FEAD10C01F0B1
:100BA000070325291CBF262927290CD0844405FAD0
:100BB00003F39CF811C01CEA030318BF012313B10F
:100BC000A154521CD2B2491CC9B22529E5D384F8DC
:100BD000252070BC7047000078000020E8910020BC
:100BE00090F8451080F8251090F8461080F82610EF
:100BF00090F8471080F8271090F8481080F82810D7
:100C000090F8491080F829101430FFF7BFBF00F0AA
:100C100027BC000010B500F023FC094B0021DA7856
:100C20008A4205DD13F801C0844518BF491CF7D17D
:100C3000481C90FBF2F102FB1100185C10BD000093
:100C400074000020014900680860704774000020AB
:100C5000064900224A618A600A61CA60CA618A61E3
:100C60000860012081F820007047000010920020E9
:100C700002484169491C4161704700001092002000
:100C800040F2E24C01FB0CFC0A49C1F804C040F2FE
:100C9000E24C02FB0CF2C1F808C0CA6003FB0CF284
:100CA0000A6100224A61086081F82020CA618A61D5
:100CB00070470000109200200B4882680168D0E95C
:100CC00006C31144C2680CF1010C03FB0C22114451
:100CD00090F8202043691A444368006903FB02111D
:100CE0000844643070470000109200200A4882686F
:100CF0000168D0E906C31144C2680CF1010C03FB82
:100D00000C22114490F82020436940681A4400FBEB
:100D10000210643870470000109200200A4A114601
:100D200092F8203049694BB15268401C514340F25F
:100D300071225043B1EB001F02D203E0062901D912
:100D400001207047002070471092002010B40D4B16
:100D500040F2E2446043D3F804C0C3F81CC0D3F8A7
:100D600014C0C3F818C0586001FB04F0D8604FF0FD
:100D7000000C02FB04F0C3E9040C83F820C010BC93
:100D800070470000109200200A7A8275CA79C275F5
:100D90008A7902764A7942760A798276CA78C27668
:100DA0008A7C42734A7C82730A7CC273CA7B027457
:100DB0004A7D02730A7DC272CA7C82728A7D027089
:100DC000B1F817204280B1F819208280B1F81B20B9
:100DD000C280B1F81D200281CA7F427491F82020A0
:100DE000827491F82120C27491F82220027591F842
:100DF0002320427591F8241001F01F014170012158
:100E000041778177FFF798BE30B40A780270B1F865
:100E100002C0A0F802C08B888380CC88C480098976
:100E2000018130BC61461846FFF790BF4A7F002A17
:100E300018BF4277897F002918BF8177704710B4A7
:100E400041688AB28168D0F80CC089B222F40043AC
:100E500021F400401FFA8CF4834204D38A421CBF61
:100E60002044C01A00D1C01A80B210BCACEB000004
:100E700070474168806889B280B221F4004220F452
:100E800000439A4203D181421CBF012070470020D9
:100E90007047C260016000214160816070478268D4
:100EA00093B2426892B29A4204BF0020704722F483
:100EB00000420068805C087001207047826893B22D
:100EC000426892B29A4204BF0020704722F4004365
:100ED000D0F800C01CF803C081F800C081895B1CF9
:100EE00089B28B4206BF4FF400419143511C89B235
:100EF00041600120704710B4426893B2826823F4C5
:100F0000004492B222F4004C644504D193421EBFC7
:100F1000002010BC7047036803F80C1081890CF1A5
:100F2000010389B28B4206BF4FF400419143511C2B
:100F300089B2816010BC012070470000014AC2E9FB
:100F40000101704780000020DFF81CC00223CCF8AC
:100F50000030064B1860074B0548186006480160D2
:100F6000001D02607047000000F5004008F50040D9
:100F70006893002014F500400CF50040074900225A
:100F8000C1F8042102280CBF4FF48030002040F04B
:100F90000100034A106001200860704700F0004023
:100FA00004F50040002814BF02487047016800297A
:100FB000FCD0704704F100400548D0F80401002837
:100FC00008BF704703480068002818BF0120704719
:100FD00000F0004000F40040002804BF05487047BE
:100FE000012804BF04487047022814BF00200348AA
:100FF0007047000000F0004004F0004008F000409E
:101000004FF080400021C0F8001101210160D0F8AC
:1010100000110029FBD0704706490220086000211A
:101020004007C0F8041101218160D0F804110029A3
:10103000FBD070471805004070B5174C15460646A2
:101040001022606801F0EBFC10223146206801F0AC
:10105000E6FC124A4FF0010C0023C2F80031C2F83E
:101060000431C2F800C0D2F800111046002904BFB4
:10107000D0F804110029F6D0D2F80411012908BFD4
:10108000C0F80431E9D0C2F800312846A168BDE8B3
:101090007040102201F0C3BC9400002000E000402A
:1010A0000649074801F11002C0E9001201F12002CF
:1010B00082600448016001207047000073940020A2
:1010C0009400002004E500404FF0A04101EB8000B7
:1010D0000022C0F8002770474FF0A041012202FA19
:1010E00000F0C1F81805704710B50B48FF21FFF755
:1010F000BDFB0A4B00204FF0A0424FF0010C195CE1
:101100000CFA01F1C2F81815C2F80815401CC0B25B
:101110000428F4D310BD0000A0000020432A0000E2
:1011200004490122085C4FF0A04102FA00F0C1F826
:1011300008057047432A000004490122085C4FF06B
:10114000A04102FA00F0C1F80C057047432A0000E4
:1011500008494FF0A042095CD2F80405012303FAC4
:1011600001F121EA0003C2F808350840C2F80C0575
:1011700070470000432A00004FF0A041012202FA0C
:1011800000F0C1F80805704710B500F02DF9FFF721
:10119000ABFFFFF785FFFFF733FFFFF73DFFBDE82C
:1011A000104000F023BB0246EFF3108072B6002817
:1011B00014BF01210021107800280CBF012000205D
:1011C00001231370002918BF704762B670470021D1
:1011D00001707047EFF3108172B6002918BF01212A
:1011E00000220270002918BF704762B670470000E5
:1011F000A0F11401C9B20C2906D20C4A01EB41013D
:1012000002EB8101097A59B9142828BF704700EB15
:101210004001074A02EB8101097A002908BF7047A3
:10122000012101FA00F0034908607047A80000207E
:10123000A494002008F50140A0F11401C9B20C29C2
:1012400006D20C4A01EB410102EB8101097A59B93E
:10125000142828BF704700EB4001074A02EB8101C8
:10126000097A002908BF7047012101FA00F00349FB
:1012700008607047A8000020A494002004F50140F5
:10128000F0B40022224C8446012502EB420354F8BC
:101290002360664507D104EB83035F688F4204BF78
:1012A0001B7A002B0CD0521C0C2AEEDBFF22FF2AEB
:1012B00013BF10460020174AF0BC18BF704707E064
:1012C00002EB420304EB830314321D72D2B2EEE749
:1012D00000EB400302EB83031B7A2BB1401C142864
:1012E000F6DBF0BCFF20704700EB4003C0B242F8D1
:1012F00023C002EB830251601572C20002F18042EA
:1013000002F5F832C2F810C5C2F81415F0BC7047E7
:10131000A8000020A494002070B4A0F11402D1B25F
:10132000194D01EB410105EB81031849D4B200EBE3
:10133000400C01EB8C010C2C01D21C7A1CB9142836
:1013400006D20C7A24B1012606FA00F4104E34605D
:10135000D4B200220C2C08D21B7A002B1FBF05EB45
:101360008C0000F8E82C70BC7047142824BF70BCB7
:101370007047087A002804BF70BC70470A604A6052
:101380008A6070BC70470000A8000020A494002070
:1013900008F5014000B5FFF773FFFF2808BF00BD47
:1013A000A0F11401C9B20C2906D20C4A01EB41018B
:1013B00002EB8101097A59B9142828BF00BD00EB5E
:1013C0004001074A02EB8101097A002908BF00BDEC
:1013D000012202FA00F1034A116000BDA8000020BA
:1013E000A494002004F50140F0210148FEF7A1BFBC
:1013F000A494002006490968017006490A68120E83
:1014000042700A68120C82700968090AC17070473C
:10141000241500401C150040054A01781160D0F8E1
:101420000100044900BA20F0FF0008607047000086
:10143000241500401C1500400348D0F8001221F08C
:101440000801C0F800127047001000400348D0F8AF
:10145000001241F00801C0F800127047001000406F
:101460000148C078704700008C0000201249A1FBA1
:1014700000214909494201EB810100EBC100C1B2E1
:101480000E482529C17008BF022010D0262908BFA8
:101490001A200CD0272908BF502008D00A298CBF59
:1014A000012000200844042202EB4000C0B2044A9C
:1014B0001060044801607047CDCCCCCC8C0000207B
:1014C0000815004054150040002818BF0D480FD0E3
:1014D000D2B242F4403242F0007202290CBF042121
:1014E0000321094B1960191D0860081D026070472F
:1014F00002290CBF4FF08070002040F4847040F44B
:101500008010E5E70601020010150040024800685F
:10151000012818BF002070470014004004490A68E1
:1015200002700A68120A42700968090C81707047DB
:101530000C140040064A40F203111160121D40F2E3
:101540005B6111600068111D20F07F4008607047EA
:101550003415004010B5054C2078FFF7DDFEFF2064
:10156000034920700020086010BD00008C0000209E
:101570004016004010B5D1F802300A881BBA4979EC
:1015800023F0FF0319430B4B52BA19600A490A6052
:10159000891501EA0020094940F001000860084C63
:1015A0002078FFF7B9FE07490748FFF7F3FE2070E0
:1015B00010BD0000001600402016004040160040FC
:1015C0008C000020101000401811004010B5144C81
:1015D00020B11449FFF7DEFE607010BD6078FFF7A0
:1015E0009BFE11480068002808BF10BD0F4AD2F8C2
:1015F00000321024C2F808434FF0000CC2F800C2B9
:10160000C2F810C101201061094801680029FCD00E
:10161000C2F810C1C2F80032C2F8044310BD000085
:101620008C000020101000405015004000100040B9
:101630001011004010B50F4920B1FFF7ABFE0E4965
:10164000887010BD0D4A0020C2F80001C2F80401E4
:10165000C2F80801C2F80C01C2F81001C2F8140166
:10166000C2F81801C2F81C01C2F828010120086064
:1016700010BD0000041000408C000020001000404D
:10168000102804BF1348704710DC012804BF12481B
:101690007047022804BF11487047042804BF10484F
:1016A0007047082804BF0F48704710E0202804BF87
:1016B0000D487047402804BF0C487047802804BF7D
:1016C0000B487047B0F5807F04BF0A487047002080
:1016D000704700001011004000110040041100404C
:1016E000081100400C110040141100401811004076
:1016F0001C1100402811004070B54FF0E024012279
:101700004FF0020C0021C4F880C1134B19601A601D
:10171000124B1325C3F80052114D2960114D296059
:101720002D1D2A601022C3F80423C4F880C2621C55
:1017300082F80014C4F800C10B4C60602078FFF7F9
:10174000EBFD6078FFF7E8FDA078FFF7E5FDFF20EF
:1017500020706070A07070BDFC1F00400010004041
:101760000C1500402C1500408C000020014800683A
:1017700070470000041500400149086070470000F0
:101780000415004003490128086808BF40F0010023
:10179000086070475016004001480068C0B27047AA
:1017A000481500402DE9F04104460A480A4F00EB75
:1017B00084050E46385DFFF7AFFD002E02BF012005
:1017C0002860BDE8F08129463046FFF7E3FD385533
:1017D000BDE8F0814080004038010020800000F129
:1017E000804000F50040D0F84005704730B44FF01D
:1017F000E02401254FF4807C0023C4F880C10F4908
:101800001846FF220B808B700A54401CC0B203287C
:10181000FAD30B484560C5600A490B600A4A0321A8
:1018200011600A4A04211160C0F80032C4F880C275
:10183000C4F800C1056030BC7047000038010020CA
:10184000008000400485004008850040108500406D
:101850000023820002F1804202F50042C2F84031CA
:10186000C2F84015014901EB8000704740810040FB
:10187000064BD0F800C0C3F814C080881883C3E9B1
:10188000032103F1140000F063BA00003C010020C2
:1018900038B50B498020C1F804030A4C2078002891
:1018A00018BF38BD6946E068FFF708FB002808BF8D
:1018B00038BD9DF80000044908600120207038BD43
:1018C000002000403C0100201C2500402DE9F04193
:1018D000134F04460E46F868002808BFBDE8F081A3
:1018E00000F018FD397800290CBF90F8325090F8BC
:1018F0003150FFF78CF90146F86800F097FC022D93
:101900000CBFA4F11800A4F12800B968BE60411A08
:10191000F86800F0E9FCBDE8F04100F0E5BE000029
:101920001000002070B50020FFF712FC0020FFF728
:101930004DFE00F0EFFC04464088411C618000F041
:10194000E9FC01F041F8254EF07800281CBF04F1B5
:101950005400FFF703F8012030700020F0700125DB
:10196000A08BFFF7DBF9002818BF0025207900289D
:101970001CBF607900282AD14DB36088FFF742F878
:10198000FFF774FDB078FB22002818BFFF2294F8FF
:1019900031100020FFF798FDFFF7A8F9A0F18105AD
:1019A000FFF78AF900F1280429460220FFF750FFCB
:1019B000054621460020FFF74BFF04462846FFF767
:1019C00039FE2046FFF702FE0520307170BD7179A7
:1019D0007078BDE87040024A00F0B0BD10000020F1
:1019E000200000202DE9F05F0E46814600F092FCB9
:1019F000DFF83C810446D8F80C00002847D000F0FE
:101A000089FC98F800A00546BAF1000F0CBF95F8C4
:101A1000327095F8317000221046012101FA00F36E
:101A20003B4204D1401CC0B20828F7D3002000F08C
:101A3000070042EA001BFFF7BFFA80BBD5F8100190
:101A40004078002818BF00202AD098F802104BEAEE
:101A5000C00040EA810040EA4A0AFFF757FD40EA29
:101A60000A016A88D8F80C0000F00AFC022F0CBFAB
:101A7000A9F11800A9F12800D8F80810C8F80860E2
:101A8000411AD8F80C0000F02FFC00F02DFED4F81D
:101A900010010321007831EA000008D102E0FFE7DD
:101AA0000120D2E798F80010204600F0F3F92079E1
:101AB00028B198F80010204600F03BFF607104F157
:101AC000540298F80010D4F8100100F057FE98F86E
:101AD0000310084388F8030098F8000006F1640139
:101AE00080F0010088F800000220FFF7B1FE0546F3
:101AF00098F80000002814BF94F8311094F83210C0
:101B0000FB2298F80200002818BFFF220020FFF7F0
:101B1000DBFC2846FFF78EFD06F1C8010020FFF729
:101B200097FEFFF753FD062088F80400BDE8F09FFC
:101B30001000002070B500F093FD1A4C0028E06002
:101B400008BF194E02D000F0CDFB0646A07800B3C6
:101B500000F0E0FB2378002B0DBF90F8325090F896
:101B60003150D4E90601D4E90801DFF840C0CCE9DE
:101B700004018CF81830ACF20510FFF7FDFD0C499C
:101B8000324601F20510FFF7DFF92846FFF7F6F9B4
:101B900002E03046FFF7F0FD00F0BCFBC0F810613A
:101BA00070BD000010000020A8010020A803002044
:101BB000A30200202DE9F04104460020FFF70EFEAD
:101BC00006460120FFF70AFE5F4F054614F0080F96
:101BD0001CBFB878FFF7E6F938794FF002080728FC
:101BE00055D2DFE800F07F0419308296A300002070
:101BF000FFF7AEFA0020FFF7E9FCFFF70BF8FFF75D
:101C000035FC0020FFF716FD14F0080F58D02946C8
:101C10003046FFF75BFE93E014F0200F50D0FFF743
:101C2000A5FD0078F87129463046FFF74FFEFFF713
:101C300091FC05F1C8010020FFF70AFEFFF7C6FC82
:101C4000032038717CE014F0080F3AD02946304662
:101C5000FFF73CFEFFF78AFD007800F00F00052833
:101C600021D1FFF753FCF0B1787888B13749787902
:101C7000FFF780FC0020FFF76BFA0020FFF7A6FCBF
:101C8000FEF7C8FFFFF7F2FB0020FFF7D3FC29E0C7
:101C90000020FFF79BFCFFF769FD0146284600F096
:101CA000D3FB05200BE029497879FFF763FC05F1A8
:101CB000C8010020FFF7CCFDFFF788FC0420387135
:101CC0003EE00020FFF744FA0020FFF77FFCFEF71C
:101CD000A1FFFFF7CBFB0020FFF7ACFC1B49787995
:101CE000FFF748FC87F804802AE00020FFF730FA6D
:101CF0000020FFF76BFCFEF78DFFFFF7B7FB00201E
:101D0000FFF798FC29463046FFF7E0FD87F804808E
:101D100016E014F0080F04D0A6F12800FEF798FF93
:101D200007E0FEF7A5FFFFF7FDFD09E014F0080F3F
:101D300004D029463046FFF755FE01E0FFF7F2FDDB
:101D4000BDE8F041FFF7F6BE1000002020000020A3
:101D500010B504464078FFF7BFF92078FFF7BCF9CB
:101D60006078FFF709FA2078FFF706FAE078FFF7C6
:101D7000ABF9A078FFF7A8F91E4920780860091D83
:101D800060780860091DA0780860091DE078086087
:101D9000194A0023C2F80831C2F81C31607917498A
:101DA000A1FB00C18908494201EBC10100EB4100E0
:101DB000134951F82000134908602079002818BF02
:101DC0000120114908600420C2F804038021C2F8F0
:101DD00004130E490860C2F80831C2F81C31012111
:101DE000916011600A4A602182F80014911EC1F8C6
:101DF000000110BD0825004000200040398EE33866
:101E000058010020242500406C250040002500409A
:101E100002E000E0FFF7B8F900F01AFC00F0D6FB92
:101E200000F078FA00F07AFA00F078FC164A511EB9
:101E3000881C00F04FFA00F06DFA543000F072FA8E
:101E4000124C0720FF252070207878B1042801D09B
:101E5000072813D000F0CAF8207000F01BFC0028FF
:101E6000F2D000F049FA00F02BFCEDE700F0CCFBDB
:101E7000074A6178A07800F061FB03E000F0C4FB42
:101E800000F076FA2570E8E702000020000000204C
:101E900003000020F0B4D0F8102100260124D378EC
:101EA0004FF6FF7C47F6FF75E3B1012B3AD0022BCA
:101EB00055D0182B1CBFF0BC7047D1884388CB1A73
:101EC00093FBFCF60CFB1633AB42A4BFF0BC70478F
:101ED000137980F85130527980F852200473C1810F
:101EE000F0BC7047B2F80D104388CB1A93FBFCF797
:101EF0000CFB1733AB4212DA137980F83430B2F8A6
:101F00000530C386B2F807300387B2F8093043873B
:101F1000B2F80B20828704724181F0BC70470670D2
:101F2000F0BC7047B2F809104388CB1A93FBFCF75A
:101F30000CFB1733AB42F2DA137980F84530537952
:101F400080F84630937980F84730D37980F848306C
:101F5000127A80F8492004744182F0BC70470379FA
:101F6000002B1CBFF0BC704704711278C2F3C00292
:101F70008271C171F0BC704710B40378C3F3800262
:101F8000C3F3C00C4378002B0CBF01230023154C76
:101F900000291EBF637010BC7047A1789CEA010F36
:101FA0000FD1114B002914BF002101211970407875
:101FB00038B1A068D0E9001C4B1C4CF10001C0E90D
:101FC0000031207882420AD0607840B96068D0E958
:101FD000001311F1010C43F10001C0E900C12270AE
:101FE00010BC7047800000208200002038B500F04F
:101FF000AFFC50B101688A78022A0A462CBF1288C9
:1020000052784068931D984201D0FF2038BD4C792A
:10201000881D234D0C2C1AD005DC4CB1072C08BFB1
:1020200000F04CF83AE00D2C16D0172C27D035E0F4
:10203000A96802680A6082888A80EA6881791170DA
:10204000C079002818BF01202969087026E0102AED
:1020500008BF00F02BF821E02878F8B9012028709B
:1020600010496868000A48706868421C6A60087015
:1020700008210D4800F080FC002028700EE0017857
:102080008DF8031041788DF8001081788DF80110DB
:10209000C0788DF802006846FEF7D4FD204638BDB2
:1020A0003C0000205F0000205C0000200146102260
:1020B000014800F0B4BC0000349200200249102214
:1020C000A1F1100000F0ABBC44920020F8B50D4621
:1020D000044680686946FEF7E2FE00281CBF002621
:1020E000012724D0607800289DF8000010D0AB288C
:1020F00010D0BC281DD061686A68914206D0227851
:1021000042B3AC281CBFBD28CE281BD0667008E0A7
:10211000AB2802D16770267066606946A068FEF73A
:10212000CDFE6946A068FEF7BAFE0028DAD100208D
:10213000F8BD66706946A068FEF7C0FE606868601A
:102140000120F8BD2A68401E50546068401C606041
:102150002670E2E7CD2808BF2770DED02A685054E9
:102160006068401C6060D8E72DE9F04104460D46E8
:102170008068FEF77EFE002804BF0026012733D1C9
:10218000607870B1296860682278095C8AB1481C5F
:10219000C1B2A068FEF7AFFE6068401C60602670A8
:1021A0001DE0AB21A068FEF7A6FE67702670666092
:1021B00015E06A68904207D1BC21A068FEF79BFE3B
:1021C00066700120BDE8F081AB291CBFBC29CD2978
:1021D000A0680CD0FEF78FFE6068401C6060A068AD
:1021E000FEF747FE0028CBD00020BDE8F081CD21CE
:1021F000FEF781FE2770F2E7436801210022002BE1
:1022000088BFD0F800C00AD91CF80200AB281ABF5A
:10221000BC28CD28491C491C521C9342F4D8481CA8
:10222000704700220260816070470000F8B5134ECD
:1022300004460D463078002818BFF8BD01203070E4
:102240000A20A07106212046FEF768FBFFF75EF921
:10225000E07125720025A572E572FFF79DFA6072A4
:102260006846FFF7C7F80422694604F1100000F041
:10227000D6FB2046FEF702FB3570F8BD3C0000207F
:10228000F8B5134E0446154630780F46002818BF9F
:10229000F8BD0120307006212046FEF73FFBE771B4
:1022A000FEF7B5FC2072FFF777FA6072A572280A74
:1022B000E0726846FFF79EF80422694604F11000B8
:1022C00000F0ADFB2046FEF7D9FA00203070F8BDD3
:1022D0003C000020024B1A61C3E902017047000074
:1022E0003C0000201430704701730A0A42730A0C44
:1022F0008273090EC17370470188891D00F03CBBD1
:102300000121017000210172017401734171017199
:102310007047000000487047549200204FF48A71C3
:10232000FEF707B810B584B0002104460091019172
:1023300002910391694610220C4800F070FB0B4992
:10234000009A0A61019A4A61029A8A61039ACA61F3
:102350000098C4F815000198C4F819000298C4F850
:102360001D000398C4F8210004B010BD3492002071
:1023700010B500F049F91548FFF7BEF90120FFF745
:1023800001FA012125220846FFF79EF82520FFF7D4
:102390006DF80F48FFF7CEF80E48FFF73DF8022022
:1023A000FFF76EF901460020FFF7FCF90820FFF760
:1023B00067F901460120FFF7F5F90020FFF73AF928
:1023C000FFF7B8FB04490120087110BDB51B0000E0
:1023D0003C2A00003F2A00001000002010B5034CEA
:1023E000A079FEF705FF0020A07010BD10000020AE
:1023F00010B50C4601461022104800F010FB1048A2
:102400002168C0F819126168C0F81D1200200D4C37
:10241000844603466062A061C4E907002278014651
:10242000002A14BF18466146044BC3E904011A761A
:10243000A079FEF701FF0120A07010BDA8030020C5
:10244000A8010020100000202DE9F0410F460646AB
:10245000FFF760FF044600F0D7F80120FEF76CFE9E
:10246000344D3A780121E87901EA5211C0F3401065
:10247000084084F83000002060802046FFF740FFCD
:10248000394604F11400FEF77FFC05F12001A1F1AB
:102490000800FEF753FD2848FFF72EF90120FFF74B
:1024A00071F904F11E00FFF745F804F12100FEF771
:1024B000B3FFA878FB22002818BFFF2294F8311040
:1024C0000020FFF701F8237DE28A218B3046FEF7DA
:1024D000D7FB0220FFF7D4F801460020FFF762F98E
:1024E0000820FFF7CDF801460120FFF75BF960886F
:1024F000FEF788FAFEF7BAFFFEF7F8FBA0F18104B9
:10250000FEF7DAFB00F1280621460220FFF7A0F9CA
:10251000044631460020FFF79BF906462046FFF7A8
:1025200089F83046FFF752F8FFF704FB05202871C1
:10253000BDE8F08110000020B51B00002DE9F0413E
:1025400014460F46064600F05FF81C48FFF7D4F823
:102550000120FFF717F9012125220846FEF7B4FFF5
:102560002520FEF783FF1648FEF7E4FF1548FEF727
:1025700053FF154D38466E706F7121682961A1882F
:10258000A98205F11001FEF7F5FFFEF75FFF0220BB
:10259000FFF776F801460020FFF704F90820FFF75F
:1025A0006FF801460120FFF7FDF80020FFF742F821
:1025B000FFF7C0FA02202871BDE8F081B51B0000CA
:1025C0003C2A00003F2A00001000002070B5084C93
:1025D000002020710220FFF753F805460120FEF786
:1025E000FBFC01462846FEF74BFEA07170BD0000C3
:1025F0001000002003480021C0E90811C0E90611BD
:10260000704700001000002070B5104C20790028A1
:102610001CBF0020FEF7DAFFFEF79CFFFEF70CFF61
:10262000A079FEF7E5FD0025A570C4E90855C4E9C9
:1026300006552846FEF774FD0120FEF771FD0120C6
:102640002070E560E570257170BD0000100000206D
:1026500002480021018041807047000038000020BE
:102660000A480188408821F4004320F40042934244
:1026700003D181421CBF00207047C2EB021000EB67
:102680008000034901EB8000704700003800002003
:10269000D0030020084841880088884204BF0020F9
:1026A000704720F40040C0EB001000EB80000349AD
:1026B00001EB80007047000038000020D0030020AC
:1026C000084A51881088884208BF704720F40041AA
:1026D000072906BF4FF4004121EA0000401C10808A
:1026E0007047000038000020DFF82CC0BCF8000064
:1026F000BCF8021020F4004321F40042934202D1BE
:10270000884218BF7047072A06BF4FF4004088432D
:10271000481CACF8020070473800002010B5104883
:10272000FEF755FD0F494FF4806201F58060FEF71A
:10273000B0FB0D490D48FFF774FD0D494FF4004201
:1027400001F50040FEF7A5FB0A4901F11C00FFF767
:1027500068FDBDE81040074A03490748FFF788B8FD
:1027600064000020B00D0020B0110020D0910020A6
:10277000C0110020C0910020650000202DE9F0412B
:10278000106007460446117100780D4600F00306FC
:102790006078B4F805104FF0000810F01F0F18BF54
:1027A000012E47D0022E04D0032E08BF134674D04A
:1027B000B2E006293ED114F8070F09283AD2DFE823
:1027C00000F0ABABABAB05AB273A49002800D4F81F
:1027D00001000ED0C2F85F00D4F80500C2F8630013
:1027E000D4F80900C2F86700D4F80D00C2F86B00F5
:1027F00092E0C2F86F00D4F80500C2F87300D4F874
:102800000900C2F87700D4F80D00C2F87B0083E01D
:1028100028000FD1D4F80100C2F81500D4F8050043
:10282000C2F81900D4F80900C2F81D00D4F80D0050
:10283000C2F8210070E028006ED1B4F80900A2F8B7
:102840003500D4F80100C2F83700D4F80500C2F80A
:102850003B0061E02800D4F801000ED0C2F83F0030
:10286000D4F80500C2F84300D4F80900C2F84700C4
:10287000D4F80D00C2F84B004EE0C2F84F00D4F877
:102880000500C2F85300D4F80900C2F85700D4F884
:102890000D00C2F85B003FE0FFE7E0784FF0000872
:1028A000C01E092838D2DFE800F0051E2B37373765
:1028B000373733006068C3F87F00A068C3F883002F
:1028C00018688089A3F887001868D0F80E10C3F83C
:1028D0008910D0F81200C3F88D001868D0F81600DF
:1028E000C3F8A90018E06068C3F89100A068C3F8B5
:1028F000950018684FF00108C068C3F8AD000BE000
:10290000002203F1B10103F12500FFF771FD03E09F
:10291000280008BFFFF762FD29463846FFF72CFB69
:10292000032E02BFF8780528FFF764FE4046BDE895
:10293000F081C2798A4209D0D0F8101180790978E3
:10294000C1F3800188421CBF0120704700207047FE
:10295000074810B5054901608021416001460548DE
:10296000FFF7B4FB002818BF014810BD300D002050
:102970006C000020D091002070B582B06D46CDE98A
:10298000000100240D48FEF70EFCA0B12846FFF719
:1029900033FC06460A48FEF752FAB04206D32946EF
:1029A0000848FFF7E1FB0028F9D001240348FEF7AF
:1029B00011FCFEF76DFF02B0204670BD64000020E0
:1029C000C0910020DC91002070B504464088217C35
:1029D000002531B1618A814203D12046FEF700F91A
:1029E00025746088217A49B16189814206D104F158
:1029F000340104F11400FEF707FA2572217B608888
:102A0000002908BF70BDE189814218BF70BD04F183
:102A1000340104F11400FEF709FA257370BD002398
:102A2000002A98BF7047A2EB030C8C441CF801CC21
:102A300000F803C05B1C9A42F5D870475555558E77
:102A400089BED61112131400682A0000000000206D
:102A5000A40100003C020000042B0000A40100209F
:102A600054D4000098020000F2FF024B011A020247
:102A700011140E59049705060708010F05142526A1
:102A80002703EBFFFF8EA113408112401A10045957
:102A90000C5A040C1A440C5A100C1B2811084AF04A
:102AA0000C11990C1A040C9A040C4B44800C1A0C4F
:102AB0000C5A480C9B40B160190C6960290CAA0C97
:102AC00024590C61021A0123F00423D00923B01306
:102AD000335027223B1BA04E1832751A8014329DAA
:102AE0001AE51022EB14903A0114E0D7012CB0AF94
:102AF00003A31114705F0734D0BE0E1210040090AF
:042B0000D0030000FE
:0400000500000201F4
:00000001FF
